S02200006770696F5F6C65645F6F75747075745F636D33335F636F7265302E73726563E2
S21408000000002020ED2F080057230800C72A080004
S214080010EB2F0800FF3508003F3608006336080057
S2140800203339000000000000000000009B3608007E
S214080030B136080000000800B3360800B5360800D8
S214080040213008002930080031300800393008000F
S214080050413008004930080051300800593008007F
S21408006061300800693008007130080079300800EF
S214080070813008008930080091300800993008005F
S214080080A1300800A9300800B1300800B9300800CF
S214080090C1300800C9300800D1300800D93008003F
S2140800A0E1300800E9300800F1300800F9300800AF
S2140800B0013108000931080011310800193108001B
S2140800C0213108002931080031310800393108008B
S2140800D041310800493108005131080059310800FB
S2140800E0613108006931080071310800793108006B
S2140800F081310800893108009131080099310800DB
S214080100A1310800A9310800B1310800B93108004A
S214080110C1310800C9310800D1310800D9310800BA
S214080120E1310800E9310800F1310800F93108002A
S2140801300132080009320800113208001932080096
S2140801402132080029320800313208003932080006
S2140801504132080049320800513208005932080076
S21408016061320800693208007132080079320800E6
S2140801708132080089320800913208009932080056
S214080180A1320800A9320800B1320800B9320800C6
S214080190C1320800C9320800D1320800D932080036
S2140801A0E1320800E9320800F1320800F9320800A6
S2140801B00133080009330800113308001933080012
S2140801C02133080029330800313308003933080082
S2140801D041330800493308005133080059330800F2
S2140801E06133080069330800713308007933080062
S2140801F081330800893308009133080099330800D2
S214080200A1330800A9330800B1330800B933080041
S214080210C1330800C9330800D1330800D9330800B1
S214080220E1330800E9330800F1330800F933080021
S214080230013408000934080011340800193408008D
S21408024021340800293408003134080039340800FD
S214080250413408004934080051340800593408006D
S21408026061340800693408007134080079340800DD
S214080270813408008934080091340800993408004D
S214080280A1340800A9340800B1340800B9340800BD
S214080290C1340800C9340800D1340800D93408002D
S2140802A0E1340800E9340800F1340800F93408009D
S20C0802B00135080009350800B5
S214080300286E6F6E436163686553697A6520262098
S214080310307831465529203D3D203078305500004C
S214080320443A5C7265735F636869705F692E6D78BE
S21408033072745F636D33335C626F6172645F4D49DC
S2140803404D5852543730302D45564B5C626F6172AB
S21408035064735C6D696D78727437303065766B5C83
S2140803606472697665725F6578616D706C65735CDA
S2140803706770696F5C6C65645F6F75747075745CC4
S214080380636D33335F636F7265305C626F6172648E
S2140803902E630000010000000000000001000000BD
S2140803A01600000001000000B01300007869000085
S2140803B01601000000A3E11101000F000F00140051
S2140803C000000000010000003020213D2068616E1A
S2140803D0646C6500443A5C7265735F636869705F55
S2140803E0692E6D7872745F636D33335C626F617209
S2140803F0645F4D494D5852543730302D45564B5C46
S214080400636F6D706F6E656E74735C756172745C25
S21408041066736C5F616461707465725F6C70756139
S21408042072742E63000000003020213D2075617232
S214080430745F636F6E6669670000000075617274AA
S2140804405F636F6E6669672D3E696E7374616E636F
S21408045065203C202873697A656F6628735F4C7040
S214080460756172744164617074657242617365295E
S214080470202F2073697A656F66284C505541525470
S2140804805F54797065202A29290000003020213D14
S21408049020735F4C70756172744164617074657224
S2140804A0426173655B756172745F636F6E666967D8
S2140804B02D3E696E7374616E63655D003020213D64
S2140804C020646174610000006C656E677468203E85
S2140804D02030550000001140001011400020114047
S2140804E00030114000101740002017400030174019
S2140804F0004017400090194000A0194000B019406D
S21408050000C0194000D0194000E019404153534537
S2140805105254204552524F52202220257320223A08
S2140805202066696C652022257322204C696E65203A
S21408053022256422200A0000443A5C7265735F63D1
S2140805406869705F692E6D7872745F636D33335CAB
S214080550626F6172645F4D494D5852543730302D82
S21408056045564B5C646576696365735C4D494D58C2
S2140805705254373938535C647269766572735C66B0
S214080580736C5F636C6F636B2E630000696E7374C5
S214080590616E6365203C202873697A656F662873E8
S2140805A05F66726F426173657329202F2073697ABC
S2140805B0656F662828735F66726F42617365732974
S2140805C05B305D29290000006964203C3D203355D6
S2140805D0000000006964203C3D20313355000000CF
S2140805E0001100400010004000110640443A5C72BA
S2140805F065735F636869705F692E6D7872745F6390
S2140806006D33335C626F6172645F4D494D58525466
S2140806103730302D45564B5C646576696365735C88
S2140806204D494D585254373938535C64726976656B
S21408063072735C66736C5F636F6D6D6F6E5F61720D
S2140806406D2E6300636F756E74203C3D20307866AF
S214080650666666666666665500000000696E7374B0
S214080660616E6365203C202873697A656F66287317
S2140806705F6770696F426173657329202F207369FD
S2140806807A656F662828735F6770696F426173655D
S21408069073295B305D292900443A5C7265735F6391
S2140806A06869705F692E6D7872745F636D33335C4A
S2140806B0626F6172645F4D494D5852543730302D21
S2140806C045564B5C646576696365735C4D494D5861
S2140806D05254373938535C647269766572735C664F
S2140806E0736C5F6770696F2E630000003020213DD1
S2140806F020636F6E66696700000010400020104097
S21408070000401040006010400080104000A01040DC
S21408071000C0104000E010400010104000301040AC
S21408072000501040007010400090104000B010407C
S21408073000D0104000F010401202130214021502F6
S21408074016021702180219020D060E060F060000FA
S214080750443A5C7265735F636869705F692E6D788A
S21408076072745F636D33335C626F6172645F4D49A8
S2140807704D5852543730302D45564B5C6465766973
S2140807806365735C4D494D585254373938535C6429
S2140807907269766572735C66736C5F6C70666C659E
S2140807A078636F6D6D2E6300706572697068203CA3
S2140807B03D204C505F464C4558434F4D4D5F504585
S2140807C0524950485F4C50493243416E644C50552C
S2140807D041525400696E7374616E6365203C20282C
S2140807E075696E7433325F74292873697A656F6623
S2140807F028735F6C70666C6578636F6D6D426173A5
S2140808006529202F2073697A656F662828735F6CC0
S21408081070666C6578636F6D6D42617365295B30D1
S2140808205D292900000011400010114000201140E9
S21408083000301140001017400020174000301740C5
S214080840004017400090194000A0194000B0194019
S21408085000C0194000D0194000E019401E011F01D1
S214080860000201020202030204020502060207024F
S214080870080209020A020B02000000000000060730
S21408088007070807090700001E021F0200030103E6
S2140808900203030304030503060307030803090307
S2140808A00A030B03000000000000060607060806F9
S2140808B009060000696E7374616E6365203C202823
S2140808C073697A656F6628735F6C707561727442B7
S2140808D06173657329202F2073697A656F662828E7
S2140808E0735F6C70756172744261736573295B30EF
S2140808F05D292900443A5C7265735F636869705FB6
S214080900692E6D7872745F636D33335C626F6172E3
S214080910645F4D494D5852543730302D45564B5C20
S214080920646576696365735C4D494D58525437392A
S21408093038535C647269766572735C66736C5F6C58
S21408094070756172742E63003020213D20646174D6
S214080950610000003020213D20636F6E66696700E5
S2140809603055203C20636F6E6669672D3E62617560
S21408097064526174655F4270730000002875696E82
S21408098074385F7429283829203E20636F6E66699C
S214080990672D3E74784669666F57617465726D6137
S2140809A0726B00002875696E74385F7429283829B8
S2140809B0203E20636F6E6669672D3E7278466966CC
S2140809C06F57617465726D61726B000000001140AC
S2140809D00010114000201140003011400010174050
S2140809E0002017400030174000401740009019407C
S2140809F000A0194000B0194000C0194000D01940A6
S214080A0000E01940656E20213D206B504452554E3B
S214080A104346475F466F726365556E7369676E65D2
S214080A2064000000443A5C7265735F636869705FCF
S214080A30692E6D7872745F636D33335C626F6172B2
S214080A40645F4D494D5852543730302D45564B5CEF
S214080A50646576696365735C4D494D5852543739F9
S214080A6038535C647269766572735C66736C5F7023
S214080A706F7765722E630000626974506F73203C4E
S214080A802033327500000000443A5C7265735F6379
S214080A906869705F692E6D7872745F636D33335C56
S214080AA0626F6172645F4D494D5852543730302D2D
S214080AB045564B5C646576696365735C4D494D586D
S214080AC05254373938535C647269766572735C665B
S214080AD0736C5F72657365742E6300000D0A204799
S214080AE050494F20447269766572206578616D704A
S214080AF06C652E0D0A000000DFF800F0470118208C
S214080B00BFF35F8F50F00101754A116075490A6896
S214080B1052F480320A60BFF34F8FBFF36F8F70476F
S214080B20BFF35F8F6F48016831F4803101606C480D
S214080B300168490849000160BFF34F8FBFF36F8F04
S214080B407047F0B40B00DBB29B080C00E4B2E4007C
S214080B5014F01804FF25A5401E00F6B2022E0FD288
S214080B601E00F6B200EB8606366BAE431700FFB2E1
S214080B70A7402F403E431F00FFB200EB87073E63A7
S214080B80F0BC704738B504000D002A00D2B2210028
S214080B90C9B25548FFF7D5FF31BD8160C260036111
S214080BA0704770B504000D00160033002A002100B7
S214080BB04D48FFF7F2FF70BD10B54FF4D05000F067
S214080BC05FF9012140F2012000F0B0F940F202205E
S214080BD000F056F9002000F08BFD040023000122E7
S214080BE05FF4E131002000F057FE10BD2DE9F84310
S214080BF03E4F3F4CDFF8FC80404601F09EF8DFF899
S214080C00F890484601F099F8FFF78AFF002100207F
S214080C10FFF7B8FF44210120FFF7B4FF022515F0BF
S214080C200F0F04D02900C9B211F00F0104E0290003
S214080C30C9B2890011F00C0151EA0511C9B20220A7
S214080C40FFF7A0FF072616F00F0F04D03100C9B231
S214080C5011F00F0104E03100C9B2890011F00C014F
S214080C6051EA0611C9B20320FFF78CFF234A022176
S214080C700020FFF796FF224A22490220FFF791FF3D
S214080C80002C16D014F01F0F06D094221E491F48B9
S214080C9001F078F8AFF30080E219521E52095201AB
S214080CA052F003027909490151F012010120FFF7B9
S214080CB078FF0620FFF724FF404601F031F8484643
S214080CC001F02EF8BFF34F8FBFF36F8FBDE8F183A7
S214080CD080B5012200210E48FFF70EFF01BD000077
S214080CE094ED00E024ED00E090ED00E00000202008
S214080CF0000020000030034000400340E5FFFF1FCF
S214080D00E1FFFF5F02000040200308000003080020
S214080D1000401840DFF818160868002803D1DFF8E6
S214080D201406006807E00868012803D1DFF8F4070E
S214080D30006800E000207047DFF8EC077047DFF82F
S214080D40F0150868002803D1DFF8E805006807E012
S214080D500868012803D1DFF8CC07006800E0002007
S214080D60704738B50400200000B2C0F307252800F5
S214080D7000281CD0012820D0022824D0032828D0F8
S214080D8004282CD0052830D0082864D0092832D06A
S214080D900A2836D00B283AD00C283ED00D2860D02A
S214080DA00E2840D00F2846D010284CD05FE00120EF
S214080DB0A040DFF85816086061E00120A040DFF880
S214080DC0501608605BE00120A040DFF8481608606F
S214080DD055E00120A040DFF8401608604FE00120EB
S214080DE0A040DFF83816086049E00120A040DFF888
S214080DF0D016086043E00120A040DFF8C816086057
S214080E003DE00120A040DFF8C016086037E001206A
S214080E10A040DFF8B816086031E00120A040DFF8EF
S214080E20B01608602BE0DFF8AC0601680122A24085
S214080E301143016023E0DFF8F40601680122A240AE
S214080E40114301601BE0DFF8E80601680122A240B2
S214080E501143016013E00120A040DFF8D8160860AF
S214080E600DE00120A040DFF8D016086007E07B22DE
S214080E70DFF8C81657A000F085FFAFF3008031BD35
S214080E8038B5050015F06040002823D0B0F1804F33
S214080E9017D0B0F1C04F0BD0B0F1004F23D141F6B8
S214080EA0FC7414EA850404F1804414F521241BE03C
S214080EB041F6FC7414EA850404F1804414F5C2244F
S214080EC012E041F6FC7414EA850404F1804414F533
S214080ED0CA2409E041F6FC7414EA850404F1804447
S214080EE014F5805400E00024002C15D0680408D5BA
S214080EF02168DFF8F8060140C5F3C12001432160E8
S214080F0013E02168DFF8E8060140C5F3C120014375
S214080F1051F00401216008E040F20112DFF81C16C7
S214080F202CA000F02FFFAFF3008031BD70B5050090
S214080F300C00002615F06040002826D0B0F1804F3F
S214080F4019D0B0F1C04F0CD0B0F1004F27D141F600
S214080F50FC7010EA850000F1804010F5212006009C
S214080F6026E041F6FC7010EA850000F1804010F596
S214080F70C22006001CE041F6FC7010EA850000F16D
S214080F80804010F5CA20060012E041F6FC7010EA10
S214080F90850000F1804010F58050060008E040F219
S214080FA02512DFF898150BA000F0ECFEAFF30080D2
S214080FB0306850F000503060002C04D1306850F093
S214080FC08040306004E0601E306030680028FCD442
S214080FD070BD00003000000038B504000025032D61
S214080FE007D2DFF8A80650F82500A04201D06D1CED
S214080FF0F5E7032D09D34FF4FD72DFF84015DFF847
S2140810009C0600F0BFFEAFF30080280032BD00004B
S2140810102DE9F8430400002500260027DFF87006AF
S214081020D0F800804FF480792000FFF7D5FF19FA32
S21408103000F918EA090F01D1012100E00021D4F8CF
S214081040000210F001000843C0B2002827D0D4F8E8
S21408105040020005000D060000EE106AB8EE400AD1
S21408106006FB06F000EE900AF8EE600A9FED351AC9
S21408107060EE810A01EE106AB8EE411ADFED321A08
S21408108041EE210A9FED311A70EE810A9FED891A0A
S21408109000EE201ABCEEC10A10EE100A00E000208E
S2140810A0BDE8F28338B504000025002C03D0022CD6
S2140810B00BD006D30FE0DFF8DC05FFF7A9FF050025
S2140810C009E0DFF8D405050005E0DFF81C06FFF7A1
S2140810D09FFF0500FFE7280032BD01000022D1F877
S2140810E00032DFF85806184070470000D0F8402253
S2140810F061F30B02C0F840227047002918D0DFF8C9
S214081100E825904205D1DFF8E4251268D2070FD407
S214081110F9E7DFF88025904205D1DFF888261268BF
S214081120920705D4F9E7DFF87C261268D207FAD5C5
S214081130D0F800224A4012F4F852C0F80822C0F844
S21408114004127047C6DCB53CECD1C2C200A85E48A3
S2140811502DE9F44F070088465FF000095FF0000AA3
S214081160002400255FF0000B00269DF800000028EC
S21408117000F09980D8F80000DFF8C415884209D333
S214081180D8F80000DFF8BC15884203D2B8F8040087
S214081190002802D1042006000BE0DFF80C06874280
S2140811A007D1D8F80000DFF8F014884201D00420F0
S2140811B00600002E75D10120C7F80802FFF7AAFD21
S2140811C0B8F80410B0FBF1F08146D8F800004FF4E8
S2140811D07A71B0FBF1F08346062000FB09B0B0FB3D
S2140811E0FBF000EE100AD8F80C0010EE101A50EAC1
S2140811F00140B8F80410491E4905490D0843C7F8C8
S2140812001002D8ED000AF8EE600A01EE109AB8EE61
S214081210411AC0EE810AB8EE400A20EE800AB8F8F5
S214081220040000EE900AF8EE600A20EE200ABCEEF3
S214081230C00A10EE100A824698F80A00CAEA004069
S214081240C7F85002B848B9FBF0F1B8F806004143B1
S2140812500C00B548B9FBF0F1B8F8080041430D009A
S214081260002C01D1012000E02000002D01D1012131
S21408127000E02900DFF8B82512EA00420905090D42
S2140812801143C7F8201298F81000002803D0402011
S214081290C7F8040202E04020C7F808023020C7F862
S2140812A00402300003E03020C7F808020020BDE83A
S2140812B0F28F00006AD088CC2DE9F84305000E00AE
S2140812C017005FF000095FF000084FF480742800EC
S2140812D0FFF782FE8440DFF85C05046000212800E2
S2140812E0FFF70BFF012231002800FFF731FF04004B
S2140812F0002C15D12800FFF7F0FE80465FEAC810DC
S214081300F8D518F4403F02D00120040008E0002079
S2140813100400D5F860120905090D2800FFF7E6FE57
S21408132039002800FFF7E9FE2000BDE8F283000038
S2140813300851064040021820F8B504004FF4405003
S214081340DFF8F41408602178DFF8F024116061688B
S214081350DFF8EC241160A168DFF8E8241160DFF8F4
S214081360E854217B2A6861F317422A60296831F01D
S21408137002012960DFF8BC140860DFF8D064DFF8E3
S214081380D07439003068C0F34E0000F015FD2868A8
S21408139050F4005028603900306880B20622B0FB4E
S2140813A0F2F000F009FD286830F400502860390093
S2140813B0306880B20322B0FBF2F000F0FDFCF1BD0D
S2140813C0F0B40300DBB2DFF8A0442568BF26DA00D5
S2140813D09640B5438026DA0096402E4326600E00D7
S2140813E0F6B216F03F06DA0096402E4326604026F0
S2140813F02268DF0016FA07F73A42F8D02768DA00BC
S21408140096403E432660F0BC7047000040100040FF
S21408141044100040481000404C1000405010004057
S214081420F8B504004FF44040DFF80C140860217843
S214081430DFF8202411606168DFF81C241160A168B9
S214081440DFF818241160DFF81854217B2A6861F346
S21408145017422A60296831F002012960DFF8D413A0
S2140814600860DFF80064DFF8E87339003068C0F316
S2140814704E0000F0A1FC286850F40050286039009F
S214081480306880B20622B0FBF2F000F095FC2868BF
S21408149030F4005028603900306880B20322B0FB70
S2140814A0F2F000F089FC607B002804D0286850F031
S2140814B08070286003E0286830F080702860F1BDEE
S2140814C0541000404010064040100A4044100A409D
S2140814D00420004090100040F0B40300DBB2DFF8B0
S2140814E090432568BF26DA009640B5438026DA0082
S2140814F096402E4326600E00F6B216F03F06DA0037
S21408150096402E43266040262268DF0016FA07F724
S2140815103A42F8D02768DA0096403E432660F0BC88
S214081520704700004402182040420F009010064002
S21408153090100A404050064004200640380508002F
S214081540F8B504000D0016002800C0B2002801D027
S214081550012700E000272000C0B200280CD0DFF8E2
S214081560140307600020DFF804130860DFF8E012B1
S214081570300000F021FC04E057F00200DFF8F41217
S2140815800860F1BD002804D0DFF81812096889073A
S214081590FAD510F07F01DFF8E4221160704738B5FD
S2140815A000240020DFF8D8120D6815F00305002D7A
S2140815B005D0022D0ED009D3032D12D014E0012039
S2140815C0FFF770FD0321B0FBF1F00EE00120FFF7F6
S2140815D069FD0AE00020FFF765FD0321B0FBF1F086
S2140815E003E0FFF7A9FB00E0002032BDF8FFFF0F7D
S2140815F0FCFFFF0F2DE9F84F040000255FF00009F7
S2140816005FF0000A5FF0000B042C09D340F27F421B
S214081610DFF86412DFF86C0200F0B4FBAFF300806A
S214081620DFF864026101465816F003066101475860
S214081630BF0817F0010761010844D0F8048008F0D5
S214081640FF083800C0B2002817D0002E05D0022E9A
S2140816500AD005D3032E0BD00DE0FFF7A0FF0DE050
S2140816600020FFF71FFD09E0032000F09FF805E0C3
S214081670FFF765FB02E0002000E0002018F10108F3
S214081680B0FBF8F0BDE8F28F00000000E0050800A7
S214081690103000400011004000B0710B8C050800A7
S2140816A070B40300DBB2DFF8E4512C687F26DA005A
S2140816B09640B44311F07F06DA00964026432E6023
S2140816C070BC704770B40300DBB2DFF8C4512C68F6
S2140816D07F26DA009640B44311F07F06DA0096407B
S2140816E026432E6070BC70470011064090120640D4
S2140816F02DE9F04104000025002700260E2C09D30A
S21408170040F22962DFF87011DFF8880100F03AFB32
S214081710AFF30080DFF8700161010844D0F8088054
S2140817205FEA487006D518F0030006003000FFF799
S21408173061FF00E00020BDE8F0810000000007031C
S21408174080D1F00801A3E111F8B500263B480068EF
S21408175010F00300002802D0012806D009E0012076
S214081760FFF7A0FCC008060003E0FFF7D3FA060060
S214081770FFE7354F3868C00711D431480068A0FB2A
S2140817800601304A1268002300F044FB04000D00EE
S2140817903868C0F307404643300026003618300045
S2140817A0F2BD0000181100400010004010B50400FB
S2140817B0FFF7CAFF24490968C90737D42100C9B208
S2140817C0002905D0022919D00DD3032921D02BE0F2
S2140817D01221A1FB0001244A126812F03F020023DE
S2140817E000F018FB22E01221A1FB00011E4A126835
S2140817F0C2F30522002300F00DFB17E01221A1FB1F
S2140818000001194A1268C2F30542002300F002FBE1
S2140818100CE01221A1FB0001134A1268C2F305620C
S214081820002300F0F7FA01E00021080010BD0000D0
S2140818300000FF0F303000402030004000520640C5
S2140818401052064014520640045206400C520640F7
S21408185000A3E111005406401054064014540640F4
S214081860045406400C5406401852064008510640D8
S2140818701854064000510640380508002811004054
S21408188020140040C80508000018004020520640F2
S21408189020540640D40508002DE9F84185B0040018
S2140818A00D0016001F003000C0B2012801D001202C
S2140818B02AE0DFF8B48088F81060009701950020C9
S2140818C08DF8080000208DF8090001208DF80A0020
S2140818D001208DF80B0000208DF80C0000208DF8F4
S2140818E00D008DF80E4000208DF80F0000208DF8B2
S2140818F010006946404600F00FFC1C48C8F808006F
S2140819001B48C8F80C00002006B0BDE8F0810EB4ED
S21408191078B50400002605AD2900200000F003F87D
S21408192072BC5DF810FB70B504000D0000260E486A
S214081930007C002802D15FF0FF3005E02A00210075
S2140819400FF2090000F06BF870BD000001B50648FC
S214081950017C002902D15FF0FF3004E001226946CD
S21408196083689847012002BD48021820F72108001E
S214081970932108002DE9F84304000D0016001F0007
S214081980DDF82080A946B14508DA2000C0B2C04775
S2140819903868401C386019F10109F4E7BDE8F1839E
S2140819A02DE9F64F05000B9A0020290000240C703C
S2140819B04E1C00275FF0000C5FF0000E5FF000087A
S2140819C05FF0000B5FF0000900245FF0000A009942
S2140819D00968002905D15FF0300B86F800B0401C76
S2140819E01BE0002919D0B1FBF3FBD94603FB191BF2
S2140819F0BBF10A0F02D25C46303409E01400E4B2A8
S214081A00002C01D0412400E0612414EB0B040A3CAE
S214081A1049463470761C401CE3E7BDE8F68F2DE98E
S214081A20F34F93B08046914600250020039000208F
S214081A30029000208DF8050000200490DDF850B0D4
S214081A409BF80000002801D1029866E19BF8000088
S214081A5082465046C0B2252808D05046C0B2C04775
S214081A600298401C02901BF1010BE9E701208DF853
S214081A7006000020060000208DF804009DF80400EB
S214081A80002818D11BF1010B9BF80000824650462F
S214081A90C0B2302809DB5046C0B23A2805DA0A2018
S214081AA0464356FA8AF6303EE8E7BBF1010B0120BA
S214081AB08DF80400E2E71BF1010108782E281ED1F4
S214081AC00020070000208DF804009DF80400002878
S214081AD016D1491C087882465046C0B2302809DB21
S214081AE05046C0B23A2805DA0A20474357FA8AF71A
S214081AF0303FEAE7491E01208DF80400E5E7491E55
S214081B00481C07900798007882465046C0B264285A
S214081B1024D05046C0B2692820D05046C0B26628A5
S214081B201CD05046C0B2462818D05046C0B27828B6
S214081B3014D05046C0B2582810D05046C0B26F28AD
S214081B400CD05046C0B2622808D05046C0B27028A2
S214081B5004D05046C0B2752840F0A5805046C0B2A2
S214081B60642803D05046C0B2692812D1D9F80000BC
S214081B7019F1040905909DF8060000900A23012231
S214081B8005A90AA8FFF70CFF03900AA803990844BA
S214081B9005005046C0B2582803D05046C0B2782830
S214081BA019D15046C0B2782802D100208DF8060018
S214081BB0D9F8000019F1040904909DF80600009071
S214081BC01023002204A90AA8FFF7EAFE03900AA831
S214081BD00399084405005046C0B26F280BD05046FB
S214081BE0C0B2622807D05046C0B2702803D050460C
S214081BF0C0B2752843D15046C0B2702810D1D9F863
S214081C00000019F10409009004200990684608901D
S214081C100DF1100B099A0899584600F029FB04E0C4
S214081C20D9F8000019F1040904905046C0B2622899
S214081C300AD06F2804D070280AD075280CD00FE078
S214081C4008208DF805000BE002208DF8050007E057
S214081C5010208DF8050003E00A208DF80500FFE740
S214081C609DF8060000909DF80530002204A90AA8F1
S214081C70FFF796FE03900AA8039908440500CDF8D6
S214081C80008002AB320003992020FFF773FE002D78
S214081C903FD0287800283CD02878C0476D1E029888
S214081CA0401C0290F5E75046C0B263280AD1D9F81E
S214081CB0000019F1040906900698C0470298401CCF
S214081CC0029026E05046C0B273281CD1D9F800000E
S214081CD019F104090400002C1BD0200000F01CFB9E
S214081CE00390CDF8008002AB320003992020FFF75E
S214081CF041FE207800280CD02078C047641C029843
S214081D00401C0290F5E75046C0B2C0470298401CF7
S214081D100290079810F1010B92E615B0BDE8F08F17
S214081D2010B504002068C00706D4200000F012F89A
S214081D30206850F00100206010BD10B5040020682F
S214081D40C00706D5200000F011F8206840084000BB
S214081D50206010BD016851F0054101600168002946
S214081D60FCD4016831F0A06101607047016851F049
S214081D700A41016001680029FCD4016831F020613D
S214081D800160704770B504000D00160033002A0085
S214081D9021000548FFF7BBFD32002900200000F0AF
S214081DA0D6FA00BEFDE700BF0C050800010008468D
S214081DB0401E0028FCD170472DE9F8438046894626
S214081DC0B8F1000F1ED0A9FB0801104A002300F046
S214081DD021F806000F00002001218F4209D301D800
S214081DE0864206D3D52208490948FFF7CBFFAFF34A
S214081DF0008034003D00A40844EA8574AD0820003D
S214081E00FFF7D4FFBDE8F183EC05080040420F0059
S214081E1044060800BBBBE1B1B2F5803F80F07E8087
S214081E20022A1ED98C46B1FBF2F102FB11C31B0431
S214081E3043EA1043B3FBF2FC02FB1C3380B240EAD1
S214081E400343B3FBF2F002FB103240EA0C400023D7
S214081E507047022A05D98446B0FBF2F002FB10C28E
S214081E6070474AB105D100F0010249085FEA300020
S214081E70704700220023704700F06CBA0B0002007F
S214081E80002100207047904271EB030CF6D3B3F59F
S214081E90803F2FD2F0B5B3FA83F7B1FA81F4A7F1F1
S214081EA00F0E3D1B5340CEF1200602FA0EF2F34108
S214081EB05340B5F10F0746D80F3C2C444140C4F1B7
S214081EC02006A040F1414140B1FBF3F603FB161192
S214081ED0A2FB0645001BA94102D2761E801859416E
S214081EE080EA010221FA0EF362FA0EF200215A4045
S214081EF03046F0BD30B4B1FBF3FC03FB1C11A2FB6B
S214081F000C45001BA94103D2ACF1010C80185941BD
S214081F1030BC02460B46604600217047B2F1807F0F
S214081F2065D3F0B5B2FA82F7B1FA81F4C7F10F06B5
S214081F303D1B22FA06F307F1110EF24120355A40EE
S214081F40B5F10F07B8D94140C4F12006A040F141C9
S214081F504140B1FBF3FC03FB1C11A2FB0C45001B24
S214081F60A94103D2BCF1010C801859410F2F12D396
S214081F700F3FC90341EA5041B1FBF3F603FB1611C4
S214081F80A2FB0645D4EBC030A94102D2761E8018C3
S214081F90594146EACC3C07B34140C7F12006B84051
S214081FA0F1414140B1FBF3F603FB1611A2FB0645CF
S214081FB0001BA94102D2761E8018594180EA010208
S214081FC021FA0EF3C7F1200462FA0EF20CFA07F0B3
S214081FD05A402CFA04F13043F0BD80EA010221FA97
S214081FE00EF3002162FA0EF260465A40F0BD8C46A7
S214081FF0B1FBF2F102FB11C31B0243EA1063B3FB09
S214082000F2FC02FB1C331B024CEA002043EA106376
S214082010B3FBF2FC02FB1C331B024CEA002043EA2B
S2140820201063B3FBF2FC02FB1C331B024CEA0020D5
S21408203043EA1063B3FBF2FC02FB1C324CEA0020B6
S214082040002370470100002901D1002001E042F674
S214082050AF7000B27047F8B58AB005000E000027CA
S214082060684600F0CDFA70680090307A8DF8040063
S214082070707A8DF80700B07A002801D0012000E0B9
S21408208000208DF82700F07A002801D0012000E013
S21408209000208DF82600F07B002808D0F07B082862
S2140820A001DAF07B00E00820401E8DF80800307C3E
S2140820B0002808D0307C082801DA307C00E00820A8
S2140820C0401E8DF80900307B002801D0012000E072
S2140820D000208DF80A00707B002801D0012000E05F
S2140820E000208DF80B0001208DF80E0001208DF8D9
S2140820F00F00326869465648B37B50F8230000F054
S2140821004EF90400002C03D02000FFF79BFF0700C1
S214082110380000B20BB0F0BD70B504000D00002CFE
S21408212007D140F2BA224B494B48FFF72BFEAFF3D4
S2140821300080002D07D140F2BB2246494748FFF7EA
S21408214021FEAFF30080A87B0E2807D34FF42F722A
S21408215040494348FFF716FEAFF300803C48A97B8A
S21408216050F82100002807D140F2BD2239493D48E1
S214082170FFF708FEAFF3008029002000FFF76BFF8B
S214082180010009B2002902D12600A97B317000B2ED
S21408219070BD2DE9F04106000D001400002E07D191
S2140821A040F20A322B492C48FFF7ECFDAFF30080CB
S2140821B0002D07D140F20B3226492B48FFF7E2FDE7
S2140821C0AFF30080002C07D14FF44372214927480B
S2140821D0FFF7D8FDAFF300803700220029001C481F
S2140821E03B7850F8230000F093FA80464046FFF705
S2140821F029FFBDE8F081F8B506000D001400002E92
S21408220007D140F2193213491348FFF7BBFDAFF365
S2140822100080002D07D140F21A320E491248FFF707
S214082220B1FDAFF30080002C07D140F21B320949FC
S2140822300E48FFF7A7FDAFF30080370022002900FD
S21408224003483B7850F8230000F041FA0020F2BD1E
S214082250D4040800D4030800C803080028040800AB
S2140822603C0408008C040800BC040800C8040800E5
S21408227062B38B0708D0521E11F8013B00F8013BE9
S21408228000F024808B07F6D1830740F0208000BF3B
S214082290103A07D330B4B1E83810103AA0E838102E
S2140822A0F9D230BC530724BFB1E80810A0E80810DC
S2140822B044BF51F8043B40F8043BD20724BF31F82A
S2140822C0022B20F8022B44BF0B7803707047121FAE
S2140822D017D35B0009D151F8043B20F8023B1B0CCE
S2140822E0121F20F8023BF6D20BE051F8043B00F828
S2140822F0013B1B0A20F8023B1B0C121F00F8013B8F
S214082300F3D238BF121D521E24BF11F8013B00F845
S214082310013BF8D87047010000F10103810704D09B
S21408232010F8011B820781B1FAD10268A2F10131C7
S214082330914311F0803104BF50F8042FF6E709BA2C
S214082340B1FA81F100EBD100401CC01A70470300B7
S214082350002070477047FEE7816851F002018160EF
S214082360816831F002018160704738B504000025A5
S2140823700E2D07D2DFF89C0450F82500A04201D0A5
S2140823806D1CF5E70E2D08D36C22DFF88C14DFF8E9
S2140823908C04FFF7F7FCAFF30080280032BD2DE968
S2140823A0F64F83B006000C00002C08D1E322DFF8B5
S2140823B06814DFF87004FFF7E5FCAFF300802068C8
S2140823C0002808D1E422DFF85014DFF85C04FFF791
S2140823D0D9FCAFF30080207A082808DBE622DFF86D
S2140823E03814DFF84804FFF7CDFCAFF30080607AB6
S2140823F0082808DBE722DFF82014DFF83404FFF7A4
S214082400C1FCAFF3008000200290D4F800900020B2
S2140824108DF800000020ADF802005FF0040B584667
S214082420C0B221283ED204990A2041432268584661
S214082430C0B24243B1FBF2F0401D0A21B0FBF1F0F6
S2140824408046404680B2002802D10120804607E038
S214082450404680B2B0F5005F02D341F6FF70804672
S21408246004995A46D2B2404680B24243B1FBF2F0D3
S214082470019020680199884205D2DDF804A02068FA
S214082480BAEB000A04E0D4F800A00198BAEB000AF8
S214082490D14504D3D1468DF800B0ADF802801BF1C3
S2140824A0010BBCE720686421B0FBF1F1032041432F
S2140824B0494502D240F221559EE03000FFF755FF0D
S2140824C0012100F01AFA0500002D01D0280094E03A
S2140824D03000FFF741FF31699DF80000042805D356
S2140824E09DF80000082801D251F4003131F0F85167
S2140824F09DF80000401E000610F0F8500143490BF6
S2140825004903BDF80200C004C00C084330613069B6
S21408251030F000503061B069DFF8182302402079A7
S2140825200243E07B000210F4E0600243A07B8000D8
S21408253010F0040002436079012808D120790028A9
S21408254002D032F4006207E052F4006204E0207918
S214082550002801D052F01002B261306930F4005001
S214082560E179490311F4005101433161617A237A14
S21408257053EA0143F362B16A51F08801B162B16A65
S21408258051F44041B162DFF8B01251F0004151F405
S2140825904041736A677B3F0117F010073B43277B70
S2140825A07F0117F020073B437362A37A012B03D100
S2140825B0706A50F008007062E07A012803D1706AE9
S2140825C050F001007062A079012802D151F0005144
S2140825D001E031F00051706908437061B76994F8FA
S2140825E02600012801D157F4002794F8270001286F
S2140825F001D157F48027B761280005B0BDE8F08FF1
S214082600F8B50400002C09D140F20922DFF80812B8
S214082610DFF81002FFF7B6FBAFF300802825002688
S214082620270032002900380000F01AFA5FF4E1307B
S214082630206000202071002060710020A07100201A
S214082640E07100202072002060720020A072002036
S214082650E07200206073002020730020A073002022
S214082660E073002084F82600002084F82700F1BDD7
S21408267002005169DFF8C4010840916A090C11F09C
S214082680C3010843DFF8B81108407047F8B50400DE
S2140826900D00DFF8B001054015F0030F08D0A06A5A
S2140826A030F47030290411F4403108430600A6625D
S2140826B0676917F078572F4367612000FFF7D8FF40
S2140826C0054202D040F21A5000E00020F2BD70B574
S2140826D005000C001600002C09D140F2DB32DFF8AA
S2140826E03811DFF83C01FFF74DFBAFF300802200FE
S2140826F03100002907D068690002FCD51078E86127
S214082700521C491EF5E768694002FCD5002070BDDA
S2140827102DE9F84F06000D009346002D09D140F22A
S2140827201C42DFF8F410DFF8F800FFF72BFBAFF3D6
S21408273000800024A846D6F818905FEA095003D40B
S21408274019F01200022802D15FF0010A01E05FF0DA
S214082750000A5846B0F1010B002857D0F06AC0F3BB
S214082760036000283ED13000FFF782FF07003803D9
S2140827700CD55FF400213000FFF788FF002802D14F
S21408278040F21D5401E040F21A542BE0F8030BD532
S2140827905FF480313000FFF779FF002802D14FF44C
S2140827A0A46401E040F21A54B8030BD55FF4003174
S2140827B03000FFF76BFF002802D140F21F5401E0FB
S2140827C040F21A5478030BD55FF480213000FFF7E7
S2140827D05DFF002802D140F21E5401E040F21A5470
S2140827E0002CBBD0002C11D15046C0B2002807D010
S2140827F0F06910F07F0088F8000018F10108A8E7D3
S214082800F06988F8000018F10108A2E72000BDE882
S214082810F28F0000CC090800F4080800B408080085
S2140828204809080054090800600908007C090800DF
S214082830A4090800E8F8FFFF00001F4000C0FFC119
S214082840C3C0FFC103C01FC002000800C0B20028F2
S21408285001D1012011E00800C0B2042806DAD2F837
S214082860F80FC91CC84010F0010006E00800C0B206
S214082870072801D1012000E00020704701004D48DC
S21408288050F82100D0F8F40F7047F8B505000E0090
S21408289014003000C0B2082806DB8522464947489F
S2140828A0FFF770FAAFF30080424850F82570310001
S2140828B0C9B23800FFF7C8FF002801D103201BE083
S2140828C0D7F8F80F000709D5D7F8F80F10F0070063
S2140828D03100C9B2884201D001200DE0002C06D094
S2140828E03000C0B250F00800C7F8F80F03E0300018
S2140828F0C0B2C7F8F80F0020F2BD38B504000D00C6
S2140829000E2C06D3A5222C492D48FFF73BFAAFF329
S21408291000802C4830F91400FEF723FA2A4830F9CC
S214082920140000F0D1F800222900C9B22000FFF7F1
S214082930ACFF32BD38B504002000FFF79FFF050046
S21408294015F0300F11D0214A02EB8400D0F8A80009
S21408295000280AD01E4800EB8400D0F8A8102000F3
S21408296002EB8402D2F8A820904715F0030F0ED089
S214082970164A02EB8400806B002808D0144800EB47
S2140829808400816B200002EB8402926B90476807F4
S2140829900ED50E4A02EB8400006F002808D00C48BB
S2140829A000EB8400016F200002EB8402126F904750
S2140829B031BD00002408080050070800A8070800D2
S2140829C0D40708005C080800880808005C0218207D
S2140829D03C03182080B50020FFF7ACFF01BD80B58A
S2140829E00120FFF7A7FF01BD80B50220FFF7A2FF71
S2140829F001BD80B50320FFF79DFF01BD80B504200B
S214082A00FFF798FF01BD80B50520FFF793FF01BDCE
S214082A1080B50620FFF78EFF01BD80B50720FFF7BB
S214082A2089FF01BD80B50820FFF784FF01BD80B58A
S214082A300920FFF77FFF01BD80B50A20FFF77AFF60
S214082A4001BD80B50B20FFF775FF01BD80B50C20D2
S214082A50FFF770FF01BD80B50D20FFF76BFF01BDC6
S214082A6062F30F2262F31F42401810F0030308D0E7
S214082A70C91A1FD3DB0748BF00F8012D28BF20F866
S214082A80022D130030B414461546103928BF20E925
S214082A903C00FAD8490728BF20E90C0048BF40F890
S214082AA0042D890028BF20F8022D48BF00F8012D04
S214082AB030BC7047C91818BF00F8012DCB0728BFCF
S214082AC000F8012D7047FEE7F8B50400200000B2B4
S214082AD0C0F30725260036B206F0FF060127B740E2
S214082AE0202E06D390223C493C48FFF74BF9AFF31B
S214082AF000802800002814D001281AD0022820D0E8
S214082B00032826D004282CD0052832D0072838D009
S214082B1008283ED0092844D00A284AD00B2850D086
S214082B2057E03A4807602E48006838408742FAD08F
S214082B304FE0374807602B48006838408742FAD08D
S214082B4047E0344807602848006838408742FAD08B
S214082B503FE0314807602548006838408742FAD089
S214082B6037E02E4807602248006838408742FAD087
S214082B702FE02B4807601F48006838408742FAD085
S214082B8027E0284807601C48006838408742FAD083
S214082B901FE0254807601948006838408742FAD081
S214082BA017E0224807601648006838408742FAD07F
S214082BB00FE01F4807601348006838408742FAD07D
S214082BC007E01C4807601048006838408742FAD07B
S214082BD0FFE7F1BD00000000880A0800780A080030
S214082BE01000004014000040180000401C00004080
S214082BF020000040240000401070064010000640E8
S214082C001400064010000A4014000A4070000040F5
S214082C1074000040780000407C00004080000040BF
S214082C20840000407070064070000640740006403D
S214082C3070000A4074000A4049490860704700B5A9
S214082C4085B0684647491422FFF722FB1D2000F08E
S214082C50A7F80B2000F0A4F80B2000F0A1F8072036
S214082C6000F09EF8DC2201210120FEF769FC3E48B0
S214082C70FFF7E2FF3D48FEF703F9FEF729F84FF4A1
S214082C80F85269463A48FEF717FB7F20FEF77AFCAB
S214082C903848FEF751FB14210020FEF791FB182157
S214082CA00120FEF78DFB12210220FEF789FB132177
S214082CB00320FEF785FB7F210020FEF7F1FC7F212D
S214082CC00120FEF7EDFC7F210220FEF7E9FC7F21BC
S214082CD00320FEF7E5FC02214FF48070FEF726F984
S214082CE040F60D10FEF7CCF802212348FEF71EF931
S214082CF02248FEF7C5F802212148FEF717F92148B1
S214082D00FEF7BEF8022140F21710FEF70FF940F65C
S214082D101410FEF7B5F802211B48FEF707F91B4802
S214082D20FEF7AEF81A48FEF77BFB18210120FEF7DF
S214082D30D3FB1A210320FEF7CFFB7F210120FEF7E5
S214082D40C1FC7F210320FEF7BDFC022203211148A7
S214082D50FDF7D2FE10481149086005B000BD000016
S214082D6040021820B403080000366E0144080040EC
S214082D7000110040940308004300008041080080CA
S214082D802B000080290800802B00004029080040FE
S214082D90A40308000040184060F6270E3C021820DE
S214082DA010B50400B4F1004F08D14A22DFF84C10E1
S214082DB0DFF84C00FEF7E6FFAFF30080C4F3072009
S214082DC000280FD0DFF83C00C4F3072110EB810180
S214082DD0C4F3072210EB820000680122A240904349
S214082DE0086009E00121A1402200920912F47F72CE
S214082DF0DFF814008218116010BD0000240A0800CD
S214082E00040A08009CF020403030004010B504004A
S214082E10200000B2FFF758FE10BD1300DBB2002BEF
S214082E2003D101238B40836402E001238B40436473
S214082E30704738B504000025102D06D21D4850F8F6
S214082E402500A04201D06D1CF6E7102D06D35622A9
S214082E5019491A48FEF796FFAFF30080280032BDDE
S214082E6070B505000E001400002C06D17722124912
S214082E701348FEF787FFAFF300802800FFF7D9FF57
S214082E80104931F91000FFF7C1FF2078002805D156
S214082E90686D0121B1408843686509E062783100B1
S214082EA02800FFF7BAFF686D0121B140084368653E
S214082EB070BD0000F8060800980608005C060800C2
S214082EC0EC06080038070800C164704781B0002186
S214082ED00091002100910099814204D200BF009918
S214082EE0491C0091F7E701B0704738B517480088C5
S214082EF0ADF80000FDF77AFE00F060F8FFF79FFED9
S214082F00FDF75AFE40F21220FFF7DEFD4FF48970F7
S214082F10FDF727FF0E4D5A2028600E48FEF7F7FCEF
S214082F200D4C2000FFF7D2FF0C4828600C4D6A466F
S214082F3011212800FFF794FF2000FFF7C7FF5FF472
S214082F4000312800FFF7C0FFF6E700001623080048
S214082F50E02F0650DC0A080000127A005A00009F8C
S214082F600000104030B400230400E4B2082C08D354
S214082F700400E4B2640154FA81F50E4C14EB85049F
S214082F8014E00400E4B2042C08D30400E4B264019C
S214082F9054FA81F5084C14EB850407E00400E4B203
S214082FA0640154FA81F4A40014F14024226030BC71
S214082FB070470000003C0640004E0A4070B50620E8
S214082FC0FFF782FD412422001F210020FFF7CAFFD9
S214082FD001252A0000210120FFF7C4FF0026320041
S214082FE011210020FFF7BEFF70BDFEE772B6074846
S214082FF0074901600A6882F30888064880F30A8849
S21408300062B60548804705480047000008ED00E01E
S2140830100000080000FC1F201535080001360800CF
S214083020004800470D350800004800470D350800E1
S214083030004800470D350800004800470D350800D1
S214083040004800470D350800004800470D350800C1
S214083050004800470D35080000480047D5290800F5
S21408306000480047DF29080000480047E92908000B
S21408307000480047F329080000480047FD290800D3
S21408308000480047072A0800004800470D35080092
S214083090004800470D350800004800470D35080071
S2140830A0004800470D350800004800470D35080061
S2140830B0004800470D350800004800470D35080051
S2140830C0004800470D350800004800470D35080041
S2140830D0004800470D350800004800470D35080031
S2140830E0004800470D350800004800470D35080021
S2140830F0004800470D350800004800470D35080011
S214083100004800470D350800004800470D35080000
S214083110004800470D350800004800470D350800F0
S214083120004800470D350800004800470D350800E0
S214083130004800470D35080000480047112A0800D7
S214083140004800471B2A0800004800470D350800BD
S214083150004800470D350800004800470D350800B0
S214083160004800470D350800004800470D350800A0
S214083170004800470D350800004800470D35080090
S214083180004800470D350800004800470D35080080
S214083190004800470D35080000480047252A080063
S2140831A0004800472F2A080000480047392A080028
S2140831B000480047432A0800004800474D2A0800F0
S2140831C000480047572A0800004800470D35080001
S2140831D0004800470D350800004800470D35080030
S2140831E0004800470D350800004800470D35080020
S2140831F0004800470D350800004800470D35080010
S214083200004800470D350800004800470D350800FF
S214083210004800470D350800004800470D350800EF
S214083220004800470D350800004800470D350800DF
S214083230004800470D350800004800470D350800CF
S214083240004800470D350800004800470D350800BF
S214083250004800470D350800004800470D350800AF
S214083260004800470D350800004800470D3508009F
S214083270004800470D350800004800470D3508008F
S214083280004800470D350800004800470D3508007F
S214083290004800470D350800004800470D3508006F
S2140832A0004800470D350800004800470D3508005F
S2140832B0004800470D350800004800470D3508004F
S2140832C0004800470D350800004800470D3508003F
S2140832D0004800470D350800004800470D3508002F
S2140832E0004800470D350800004800470D3508001F
S2140832F0004800470D350800004800470D3508000F
S214083300004800470D350800004800470D350800FE
S214083310004800470D350800004800470D350800EE
S214083320004800470D350800004800470D350800DE
S214083330004800470D350800004800470D350800CE
S214083340004800470D350800004800470D350800BE
S214083350004800470D350800004800470D350800AE
S214083360004800470D350800004800470D3508009E
S214083370004800470D350800004800470D3508008E
S214083380004800470D350800004800470D3508007E
S214083390004800470D350800004800470D3508006E
S2140833A0004800470D350800004800470D3508005E
S2140833B0004800470D350800004800470D3508004E
S2140833C0004800470D350800004800470D3508003E
S2140833D0004800470D350800004800470D3508002E
S2140833E0004800470D350800004800470D3508001E
S2140833F0004800470D350800004800470D3508000E
S214083400004800470D350800004800470D350800FD
S214083410004800470D350800004800470D350800ED
S214083420004800470D350800004800470D350800DD
S214083430004800470D350800004800470D350800CD
S214083440004800470D350800004800470D350800BD
S214083450004800470D350800004800470D350800AD
S214083460004800470D350800004800470D3508009D
S214083470004800470D350800004800470D3508008D
S214083480004800470D350800004800470D3508007D
S214083490004800470D350800004800470D3508006D
S2140834A0004800470D350800004800470D3508005D
S2140834B0004800470D350800004800470D3508004D
S2140834C0004800470D350800004800470D3508003D
S2140834D0004800470D350800004800470D3508002D
S2140834E0004800470D350800004800470D3508001D
S2140834F0004800470D350800004800470D3508000D
S214083500004800470D35080001480047FEE7000060
S2140835100D35080080B52E48016851F47001016029
S214083520016851F00F0101602A490A6840F6034015
S21408353002430A6001202849086028480168C9072C
S2140835400FD45FF0A0610160016851F0004101608E
S21408355001680029FCD401210160BFF36F8FBFF317
S2140835604F8F1F480168C90715D41E491E4A1160A7
S21408357002211E4A11605FF0A0610160016851F0E7
S2140835800041016001680029FCD401210160BFF3F5
S2140835906F8FBFF34F8F16480168C90715D41149B6
S2140835A0144A11600221144A11605FF0A06101609C
S2140835B0016851F00041016001680029FCD401212E
S2140835C00160BFF36F8FBFF34F8F00F017F801BD90
S2140835D088ED00E08CED00E000230040004003404A
S2140835E00058034000FCFF07145003401C500340DB
S2140835F000680340146003401C6003407047FEE701
S2140836000548014603B4684680F30988AFF300808E
S21408361000F004F800F014F8A5EDF5FE4EF6885113
S214083620CEF20001086840F470000860BFF34F8FC0
S214083630BFF36F8F4FF00170E1EE100A7047FEE798
S21408364000F00DF8002801D000F00CF8AFF3008069
S2140836500020AFF30080FFF748FC00F017F80120C1
S2140836607047FEE710B5074979441831064C7C4484
S214083670163404E00A68081D114488470146A1422A
S214083680F8D110BDE80000001401000000F000B8F2
S2140836900746384600F002F8FBE7FEE780B5AFF3CA
S2140836A00080024A11001820ABBEFBE72600020085
S2140836B0FEE7FEE7FEE730B4002512E050F8042BDC
S2140836C0D30744BF4A44521E091F042942F8045B24
S2140836D0FAD213468C0744BF15809B1CC90748BFFF
S2140836E01D7050F8041B0029E8D130BC7047F0B4B0
S2140836F00246106895681318506803EB5004C00714
S21408370048BF4D44A3422DD013F8016B16F00300B2
S21408371004BF13F8010BC01C31090F2907D113F891
S214083720011B0F3103E013F8017B05F8017B401EEF
S214083730F9D10029E6D013F8010BC6F38106032E4B
S21408374008BF13F8016B00EB062040422844002609
S214083750B71E8F421EBF10F8017B05F8017B761C4A
S214083760F6D1CFE7F0BC02F10C0070474BFFFFFF25
S214083770DC010000400218200000000073FFFFFF75
S2140837801C0000000C0000003C02182063FFFFFF2E
S2140837901200000022030000000018200002001B90
S2140837A0B7001007D0F8001851F00541C008210CE2
S2140837B020020029FBD408600231F0A06114200220
S2140837C051F001010C4370470EF2020A2E72202EA9
S2140837D04002490849002E101538B504000D006B44
S2140837E048844204D14FF480606949086006E0695D
S2140837F010120310100100606510301F206830F4A6
S21408380080402060D5F80008C00702D52800FFF7DA
S214083810CCFFD4F85C01C007FBD42068501E4331A7
S214083820BD4C611011083015F0030020600020061A
S2140838302802D200BF401CFAE72068800880001CD7
S21408384033F48424700330F400302062913CF10491
S2140838501860065FF08060C4F8080118200A40481F
S2140838602066D4F82C014004FBD50840020004F773
S214083870D5A62306D4A6200E62FFBFF34F8FBFF34C
S2140838806F8F31BD2DE9F041A0100116002FDE1014
S214083890212AD1324F386815F00301884206D13004
S2140838A048006800F0FF00711E88424CD0DFF8B46C
S2140838B080414620402770FF14162A04212A101536
S2140838C051F0040139602549721E02F0FF020A60B1
S2140838D00A68002AFCD41D1E412E30037FFF2EE006
S2140838E01A5C921F5C921D5C121E5C52685C124247
S2140838F05CB0010060135CD2125C72065C101A5150
S214083900FF00E0FFE7BDE8F08100000040184044F3
S214083910100040005018401D0040C2D31340040455
S214083920100300500340741812200C2224100001C3
S207083930600340E4
S804082FEDD7
